:020000040800F2
:10000000000500204D140008C1130008C3130008A8
:10001000C5130008C7130008C9130008000000003A
:10002000000000000000000000000000CB130008EA
:10003000CD13000800000000CF130008D113000802
:10004000691400086D140008711400087514000884
:10005000791400087D140008811400088514000834
:10006000891400088D1400089114000895140008E4
:10007000991400089D140008A1140008A514000894
:10008000A9140008AD140008B1140008B514000844
:10009000B9140008BD140008C1140008C5140008F4
:1000A000C9140008CD140008D1140008D5140008A4
:1000B000D9140008DD140008E1140008E514000854
:1000C000E9140008ED140008F1140008F514000804
:1000D000F9140008FD1400080115000805150008B2
:1000E000091500080D150008111500081515000860
:1000F000191500081D150008211500082515000810
:10010000291500082D1500083115000835150008BF
:10011000391500083D15000841150008451500086F
:10012000491500084D150008D513000851150008A1
:100130002DE9F843040016D02078DFF85864C10791
:1001400013D5706800F00C00042807D0706800F028
:100150000C00082840D17068C1033DD53068810388
:1001600003D56068002800F0F4802078DFF834744C
:10017000810719D5706810F00C0F07D0706800F077
:100180000C00082860D17068C1035DD43068810715
:1001900003D52069012840F0DC803168606921F0D6
:1001A000F80141EAC00131602178080770D5A069E3
:1001B000DFF8F413002865D001220A6000F00AFA83
:1001C0000546706A810700F1C68000F003FA401B03
:1001D0000228F6D9032035E16068B0F5803F04D1EC
:1001E000306840F48030306014E008B930680AE0CC
:1001F000B0F5A02F306806D140F48020306031681F
:1002000041F4803105E020F480303060316821F421
:1002100080213160606858B100F0DCF90546306833
:100220008103A2D400F0D6F9401B6528F7D3D1E7AB
:1002300000F0D0F905463068810396D500F0CAF980
:10024000401B6528F7D3C5E7206970B101213960EB
:1002500000F0C0F905463068810700F1B68000F073
:10026000B9F9401B0228F6D9B4E7386000F0B2F9BA
:1002700005463168880797D500F0ACF9401B022885
:10028000F7D9A7E7086000F0A5F90546706A81076D
:1002900070D500F09FF9401B0228F7D99AE708B9FA
:1002A000306A09E00528306A06D140F00400306267
:1002B000306A40F0010005E0400840003062306ADA
:1002C00020F00400306241F28938E06868B100F043
:1002D00081F98146306A810700F1848000F07AF963
:1002E000A0EB09004045F5D374E700F073F98146AF
:1002F000306A810776D500F06DF9A0EB0900404522
:10030000F6D367E700F066F9401B02287BD961E766
:1003100000F060F9001B022840F28F805AE700F0DD
:1003200093F804463068810140F18B8000F052F967
:10033000001B0228F6D94DE701280AD07068226A0E
:1003400000F48031914202BF00F47010616A88426B
:1003500077D0012076E0DFF840020168C9084FF449
:100360007A72B1FBF2F2009200BF0098411E0028A1
:100370000091F9D12078410739D5F0690025C100F5
:1003800009D4F06940F08050F0610125F06900F077
:10039000805000900098DFF81482D8F80000C10562
:1003A0001BD4D8F8000040F48070C8F8000000F0BA
:1003B00011F98146D8F80000C1050ED400F00AF901
:1003C000A0EB09006528F5D304E73068616920F0E7
:1003D000F80040EAC1003060E6E6E06801287FF4FA
:1003E0005EAF65E71DB1F06920F08050F061E06913
:1003F00038B3716801F00C0108299DD002288ED114
:1004000000F022F80546306881013FF57BAF206A95
:10041000B0F5803F05D17168A06821F40031014337
:1004200071607268206A616A22F4741202430A439E
:100430007260012000F009F80446306881017FF500
:1004400067AF0020BDE8F2830020386600F0C2B834
:100450002DE9F0410400884672D0554E00F077F83F
:1004600002D200F06FF86BD120684A4D810712D597
:10047000400703D5696841F4E061696020780107AD
:1004800003D5686840F4605068606968A06821F02E
:10049000F001014369602178C80749D560680128E7
:1004A00002D129688A0303E00228296802D18A015F
:1004B00002D445E08A0743D56968890840EA81008B
:1004C000686000F087F807466868616800F00C0013
:1004D000B0EB810F2CD000F07DF8C01B41F28931C8
:1004E0008842F1D3032021E02078410705D56A68CE
:1004F000E06822F4E06202436A602178080706D5CA
:100500006968206921F4605141EAC001696000F026
:1005100023F86A682749204BC2F30312895CC8405C
:1005200018601F48006800F05BF80020BDE8F0810B
:10053000306800F007008045D6D200F003F8D3D031
:100540000120F3E73168C90848EAC1013160306829
:1005500000F0070040457047174910480A6802F04C
:100560000C03082B00D0704710B500BF14A4C2F3D1
:100570008343D203E35C08D50968584314A3C1F34D
:1005800040415A5CB0FBF2F010BD18460B4948439D
:1005900010BD000000100240B800002000127A00D8
:1005A000B40000200000424280044242007000403B
:1005B000002002403C1400080410024000093D00E5
:1005C00002030405060708090A0B0C0D0E0F101094
:1005D0000102000001484068704700BFAC000020E5
:1005E00038B50D4D0D4B2A7804464FF47A711868D2
:1005F000B1FBF2F2B0FBF2F000F054F850B9102C5D
:1006000008D2002221464FF0FF3000F023F8AC6002
:10061000002032BD012032BDAC000020B800002017
:100620000901020002D4294881547047284B02F086
:100630000F021A4402F8041C7047264B19684FF643
:10064000FF020002114000F4E06008432249084321
:100650001860704738B51F4B1C68C4F30223C3F100
:100660000704052C28BF04241D1D072D34BF0023BB
:10067000DB1E012505FA04F4641E2140994005FAA9
:1006800003F35B1E1A401143BDE83440C8E7010084
:1006900007D4012200F01F01104B8A40400943F8A3
:1006A0002020704710B5401EB0F1807F01D301209B
:1006B00010BD0B4C60600F214FF0FF30FFF7B0FF13
:1006C0000021A16007202060002010BD00E400E0B0
:1006D00018ED00E00CED00E00000FA0500E100E09C
:1006E00010E000E070B508B9012070BD0368DFF8C4
:1006F000A452AB4200F138040BD2DFF89C12CA18A6
:100700001426B2FBF6F29200DFF89052A260656008
:100710000AE0DFF88C12CA181425B2FBF5F2920039
:10072000DFF88012A2606160022280F821201D683B
:10073000416882686FF30D150D43C1681543026966
:100740000D434169154382690D43C16915430D434A
:100750001D6000232360012280F8212080F82030D2
:10076000002070BDF8B50446002594F8200001284B
:1007700001D10220F2BD94F821600120012E84F8FD
:10078000200024D1022004F12C0684F82100F56019
:10079000206807687F087F000760204600F01CF98A
:1007A0002168306820B10A6842F00E020A6008E051
:1007B000086820F0040008602068016841F00A0120
:1007C00001602068016841F00101016002E084F8E5
:1007D000205002252846F2BD2DE9F84F00F12802ED
:1007E00004275169704E0B680468DFF8D0B12568A2
:1007F0009169DFF8C4C1DFF8BCE1DFF8B481DFF84C
:10080000AC91DFF890A18DF800109DF800108F409A
:100810003B424AD0690748D52368990603D4236828
:1008200023F0040323604FF480230168B1424FF4A6
:1008300080444FF4806511D9514508BF04230AD084
:10084000494508BF402306D0414508BF2B4602D08A
:10085000714508BF2346CCF8003020E0594517D039
:10086000574FB94216D0574FB94215D0564DA942ED
:100870000EBF2346554CA1420FD0554DA94208BF8B
:100880004FF4800309D0B14207D14FF0806304E0F8
:10089000042302E0402300E02B464E490B605168E0
:1008A000002975D0BDE8F44F08479DF800100227D5
:1008B0008F403B424FD0A9074DD52368990606D4F7
:1008C000236823F00A032360012180F821104FF4EC
:1008D00000330168B1424FF400544FF4007511D950
:1008E000514508BF02230AD0494508BF202306D03E
:1008F000414508BF2B4602D0714508BF2346CCF8BE
:10090000003020E0594517D02D4FB94216D02D4F59
:10091000B94215D02C4DA9420EBF23462B4CA14203
:100920000FD02B4DA94208BF4FF4001309D0B1429C
:1009300007D14FF0007304E0022302E0202300E01F
:100940002B4624490B60002380F820301168F9B150
:10095000BDE8F44F08479DF8001008268E4033424A
:1009600016D0290714D5236823F00E032360012431
:10097000916953698C405C600121116180F82110FC
:10098000002180F82010916811B1BDE8F44F0847AC
:10099000BDE8F18F08040240F8FFFDBF00000240EF
:1009A000F8FBFDBF00040240800002401C0402402E
:1009B00030040240440402400404024008000240A3
:1009C0001C00024030000240440002405800024037
:1009D0006C0002400400024070B5046CC66B012537
:1009E000A5407560046863604068102802D1A26069
:1009F000E16070BDA160E26070BD000038B5040028
:100A000001D1012032BD00F057F818B900F050F8BC
:100A100000F091F930E090F83D10012901D001205B
:100A20007047022180F83D100068DFF87420904282
:100A30001CBFDFF8701088420ED0B0F1804F1CBF91
:100A4000DFF86410884207D0DFF8602090421CBFB6
:100A5000DFF86C10884209D1816801F0070106298E
:100A600008D0016841F00101016003E0026842F032
:100A7000010202600020704702206870211D20687A
:100A800000F07DF80120A872A870E87028716871E4
:100A9000A871E871287268726870002032BD000089
:100AA000002C0140003401400004004000080040D8
:100AB000002129702046704704F13C056878704792
:100AC000000C004038B500F04EF801D1022032BDD4
:100AD0000120207002226270DFF818012A689368F2
:100AE000034093600868020018BF10282DD020280A
:100AF00018BF302829D0402823D0502816D060288D
:100B000018D0702803D0B0F5005F07D021E000F0C6
:100B100025F82868816841F0770105E000F01EF8AB
:100B20002868816841F48041816012E000F012F889
:100B300050210BE0CA684968286800F076F8602107
:100B400004E000F007F8402100E00146286800F0CA
:100B50007EF80EE0CA684968286857E0CB684A68A2
:100B6000896828687BE0054605F13C042078012867
:100B700070470120607000212170002032BDF0B567
:100B8000DFF874C01D4F03681D4C1E4D1E4E60459E
:100B900018BFB84208D0B0F1804F18BFB04203D0A0
:100BA000A84218BFA0420DD14A6823F07003134336
:100BB000604518BFB84207D0B0F1804F1CBFB042AB
:100BC000A84201D0A04203D1CA6823F44073134362
:100BD0004A6923F080031343036060458B68C36256
:100BE0000A68826212BFB842096901630122426148
:100BF000F0BD00008800FFFF002C014000340140E0
:100C0000000C0040000800400004004010B5036ADA
:100C1000046A64086400046223F00A03846924F00F
:100C2000F00444EA0214846123E010B5036A23F05F
:100C3000100303628369046A23F4704343EA0233B6
:100C400024F0A004836144EA0114046210BD8268A8
:100C500022F07002114341F007018160704710B526
:100C6000846824F47F442143114341EA03218160D5
:100C700010BD1943016210BD374881B0016841F0D1
:100C800001010160026802F00102009200994268CD
:100C900042F080524260406800F08050009000981E
:100CA0002E48016821F0E06141F00071016001B05F
:100CB000704778B585B0044601A8102100F05AF8B5
:100CC0002568274EB54234D12348264D416841F06E
:100CD000005141600323416801F0005100910099E7
:100CE000026842F0040202601022006800F0040072
:100CF000009000990192029301A91B4800F03EF870
:100D00001A482860102169608020E8604FF4007163
:100D100029614FF40060002268612021AA60A96166
:100D2000EA612846FFF7DEFC08B100F0B6F9A560DD
:100D30006C6206B070BD81B00068B0F1804F09D11F
:100D40000B48016841F001010160006800F00100FA
:100D50000090009801B07047181002400400014054
:100D600000740040BC000020000801403004024034
:100D70001C100240002200F09BB900002DE9F8474A
:100D80000027BE46624A634B4FF00F0882460BE0D5
:100D9000D6683040D06006E094604C68A402F7D575
:100DA000D0680643D6607F1C0E6836FA07F000F064
:100DB000AD80012000FA07F52E40AE42F3D148681D
:100DC00058B301281AD002281FD0032833D0112885
:100DD00017D012281DD0504CA0421CBF4F4CA0422F
:100DE0001BD04F4CA0421CBF4E4CA04215D04E4CC5
:100DF000A0421CBF4D4CA0420FD01EE0D1F80CE029
:100E00001BE0C86800F1040E17E0C86800F1080E86
:100E100013E0C86800F10C0E0FE0886810B94FF0BD
:100E2000040E0AE001284FF0080E14BFCAF814504F
:100E3000CAF8105001E04FF0000EB6F5807F03D2E3
:100E400050464FEA870C05E0A7F108040AF10400B8
:100E50004FEA840C046808FA0CF5AC430EFA0CF562
:100E60002C4304604868C0009DD51868DFF8C0C0F6
:100E700040F0010018601C6804F001040094BC00FC
:100E80000098B8085CF8205004F00C0408FA04F943
:100E900025EA0909274DAA4508BF002518D0264D87
:100EA000AA4508BF012513D0244DAA4508BF022535
:100EB0000ED0234DAA4508BF032509D0214DAA45D0
:100EC00008BF042504D0204DAA450CBF05250625E2
:100ED00005FA04F444EA09044CF82040F0434C6855
:100EE000E40314684CBF3443044014604C68A4030A
:100EF00054684CBF3443044054604C689568E40225
:100F00004CBF46EA050400EA050445E7BDE8F18761
:100F100000040140181002400000111000001210DF
:100F200000002110000022100000311000003210DB
:100F30000800014000080140000C01400010014081
:100F40000014014000180140001C0140D0B586B0DB
:100F500000F0C8F800F07AF839483A4C416841F09E
:100F600004014160416801F00401009100990268A8
:100F700042F0020202600022006800F002000090CD
:100F8000002100983A20FFF765FB3A20FFF77FFB2E
:100F900043A0D0E90023CDE900232B48A06404F14D
:100FA000480000F0B1F808B100F077F82421009172
:100FB00000220192694604F1480000F02BF908B1C3
:100FC00000F06BF802A81021FFF7D4FE36A04FF016
:100FD0008041D0E900670720606000220920E060BE
:100FE0008020CDE90067A0612160A26022612046D7
:100FF000FFF704FD08B100F050F84FF48050029064
:1010000002A92046FFF75EFD08B100F046F8202156
:101010000091002201926946204600F041F908B192
:1010200000F03BF82046FFF7F6FC00200090142368
:1010300004F15C02002104F1480000F079F8FEE7B9
:1010400014100240000000200074004018B58FB05A
:1010500005A82821FFF78EFE68461421FFF78AFEB7
:10106000012109911022002102240A920C91059479
:1010700005A8FFF75DF808B100F00FF80F20009009
:10108000002101910291039104916846FFF7E0F974
:1010900008B100F002F810B010BD72B6FEE7000013
:1010A0000000000000000000000000000000000040
:1010B00000B500BF130096469446103928BFA0E83B
:1010C0000C50FAD85FEA417C28BF0CC048BF40F8FA
:1010D000042BC90728BF20F8022B48BF00F8012BBA
:1010E00000BD000080B50748016841F010010160B3
:1010F0000320FFF7A2FA0020FFF772FAFFF7BCFD0A
:10110000002002BD0020024010B5040001D10120E2
:1011100010BD207920B9002161712046FFF7C9FD7B
:10112000022020710021216101202071002010BDCA
:10113000F8B505460C46114668790022012801D110
:101140000220F2BD0120687102262E7106980CBBA8
:10115000AF680FF21D16BE62AF680FF22116FE6275
:10116000AF680FF221163E632E68376847F4805748
:10117000376020B1042806D0082807D039E0286855
:1011800000F1080237E02A680C3234E0286800F1E8
:10119000100230E0EF681C4EBE62EF681B4EFE622C
:1011A000EF681B4E3E632E68376847F08057376004
:1011B00020B1042816D0082818D01AE0286800F1B9
:1011C0001402E868FFF7CEFA00210200697114D119
:1011D000296801230A6804F0100403FA04F4144394
:1011E0000C60F2BD286800F11802EAE72A681C3298
:1011F000E7E7002CE5D1A868E4E7296941F004019C
:101200002961F2BD000000005713000863130008B5
:101210006913000870B54379012B01D1022070BD1C
:10122000012343710224047102F0100203681C6858
:101230000E68496840F6FE7595400E43AC439640F3
:1012400034431C60C02301680C6803FA02F2D243E5
:1012500014400C6001680B681A400A6000F001F845
:1012600070BD012101710022427100207047000011
:1012700010B5446A204600F04FF80DE0406A00F0D7
:101280004CB8000010B5446A216941F004012161A5
:10129000204600F043F800BF0121217110BD00007D
:1012A00070B500F13C031A78012A01D1022070BD0B
:1012B00001221A7002245C7005686E68AC680A68C6
:1012C00026F0700616436E6002680E4882421CBF0C
:1012D0000E4DAA420BD0B2F1804F1CBF0C48824287
:1012E00005D0094DAA421CBF0A48824204D1486871
:1012F00024F0800404439460012159700020187088
:1013000070BD0000002C0140000800400034014086
:1013100000040040000C004070477047704730B533
:10132000016884684218416802EB5103C9070BD574
:101330004C4409E012F9011B12F8015B002904F882
:10134000015B05D5491CF9D19A42F3D10C3030BD6F
:10135000491EF1D5F8E710B5446A204600F010F8B0
:101360000BE0406A00F00DB810B5446A216941F005
:1013700004012161204600F005F80121217110BD12
:10138000704770477047000010B50749794418311D
:10139000064C7C44163404E00A68081D1144884752
:1013A0000146A142F8D110BD080000001400000061
:1013B0006FFFFFFFA0010000B4000000000000204C
:1013C000FEE7FEE7FEE7FEE7FEE77047704770477F
:1013D00000F006B80148FFF7FFB90000BC0000208C
:1013E00002494A68087882184A607047AC000020B9
:1013F00000F00DF8002801D0FFF7C6FFAFF3008022
:101400000020AFF30080FFF7A1FD00F002F80120FB
:10141000704700F001B800000746384600F002F8B7
:10142000FBE7000080B5AFF30080024A11001820EE
:10143000ABBEFBE726000200704700000000000082
:101440000000000001020304060708090148804764
:1014500001480047391400085D140008AFF300800C
:10146000AFF30080FFF7C4FFFFF7FEBFFFF7FEBF3B
:10147000FFF7FEBFFFF7FEBFFFF7FEBFFFF7FEBFA0
:10148000FFF7FEBFFFF7FEBFFFF7FEBFFFF7FEBF90
:10149000FFF7FEBFFFF7FEBFFFF7FEBFFFF7FEBF80
:1014A000FFF7FEBFFFF7FEBFFFF7FEBFFFF7FEBF70
:1014B000FFF7FEBFFFF7FEBFFFF7FEBFFFF7FEBF60
:1014C000FFF7FEBFFFF7FEBFFFF7FEBFFFF7FEBF50
:1014D000FFF7FEBFFFF7FEBFFFF7FEBFFFF7FEBF40
:1014E000FFF7FEBFFFF7FEBFFFF7FEBFFFF7FEBF30
:1014F000FFF7FEBFFFF7FEBFFFF7FEBFFFF7FEBF20
:10150000FFF7FEBFFFF7FEBFFFF7FEBFFFF7FEBF0F
:10151000FFF7FEBFFFF7FEBFFFF7FEBFFFF7FEBFFF
:10152000FFF7FEBFFFF7FEBFFFF7FEBFFFF7FEBFEF
:10153000FFF7FEBFFFF7FEBFFFF7FEBFFFF7FEBFDF
:10154000FFF7FEBFFFF7FEBFFFF7FEBFFFF7FEBFCF
:10155000FFF7FEBFA30024080000780A0000B30CC8
:101560000000780E00009B0F0000FF0F00009B0F93
:101570000000780E0000B30C0000780AFD000F0890
:101580000000870500004C0300008701000064F99B
:10159000000064FD000C870100004C03000087057B
:0E15A000000001F9000010FC000124F4BB0063
:040000050800145D7E
:00000001FF
